{
  "transactions": [
    {
      "hash": "0x36a53913faf43483250f1277f35a77457b0b0019be16e4ff2511bc107530660a",
      "transactionType": "CALL",
      "contractName": null,
      "contractAddress": "0x9d29d33d4329640e96cc259e141838eb3eb2f1d9",
      "function": "contribute()",
      "arguments": [],
      "transaction": {
        "from": "0xa983cdfd2824fcb49d6203360be2084752db24b6",
        "to": "0x9d29d33d4329640e96cc259e141838eb3eb2f1d9",
        "gas": "0x10d13",
        "value": "0x1c6bf52634000",
        "input": "0xd7bb99ba",
        "nonce": "0x0",
        "chainId": "0xaa36a7"
      },
      "additionalContracts": [],
      "isFixedGasLimit": false
    },
    {
      "hash": "0x2836afcb399f97c1581f17b0519ff0150c31ee704300fb6711731dee501de939",
      "transactionType": "CALL",
      "contractName": null,
      "contractAddress": "0xc7f2cf4845c6db0e1a1e91ed41bcd0fcc1b0e141",
      "function": "callAddPoint()",
      "arguments": [],
      "transaction": {
        "from": "0xa983cdfd2824fcb49d6203360be2084752db24b6",
        "to": "0xc7f2cf4845c6db0e1a1e91ed41bcd0fcc1b0e141",
        "gas": "0x71a6",
        "value": "0x0",
        "input": "0x6121061e",
        "nonce": "0x1",
        "chainId": "0xaa36a7"
      },
      "additionalContracts": [],
      "isFixedGasLimit": false
    },
    {
      "hash": "0x3f877b01ef4b072dc77920a2c9e2b471d7e98d7d07a66d83af19b8dc4c8dcd68",
      "transactionType": "CALL",
      "contractName": null,
      "contractAddress": "0x9d29d33d4329640e96cc259e141838eb3eb2f1d9",
      "function": "transfer(address,uint256)",
      "arguments": [
        "0xA983CDfD2824FcB49D6203360bE2084752DB24B6",
        "1000001"
      ],
      "transaction": {
        "from": "0xa983cdfd2824fcb49d6203360be2084752db24b6",
        "to": "0x9d29d33d4329640e96cc259e141838eb3eb2f1d9",
        "gas": "0xd594",
        "value": "0x0",
        "input": "0xa9059cbb000000000000000000000000a983cdfd2824fcb49d6203360be2084752db24b600000000000000000000000000000000000000000000000000000000000f4241",
        "nonce": "0x2",
        "chainId": "0xaa36a7"
      },
      "additionalContracts": [],
      "isFixedGasLimit": false
    },
    {
      "hash": "0x064e366ef8b83b7214394ee678ec3d98b09094d0f81d5f22f4d5a05f7b7f6057",
      "transactionType": "CALL",
      "contractName": null,
      "contractAddress": "0x9d29d33d4329640e96cc259e141838eb3eb2f1d9",
      "function": "transfer(address,uint256)",
      "arguments": [
        "0x5b73C5498c1E3b4dbA84de0F1833c4a029d90519",
        "1"
      ],
      "transaction": {
        "from": "0xa983cdfd2824fcb49d6203360be2084752db24b6",
        "to": "0x9d29d33d4329640e96cc259e141838eb3eb2f1d9",
        "gas": "0x207b2",
        "value": "0x0",
        "input": "0xa9059cbb0000000000000000000000005b73c5498c1e3b4dba84de0f1833c4a029d905190000000000000000000000000000000000000000000000000000000000000001",
        "nonce": "0x3",
        "chainId": "0xaa36a7"
      },
      "additionalContracts": [],
      "isFixedGasLimit": false
    },
    {
      "hash": "0x78ccd9af4baee7344f9d5ca8ee4aa9aed756f67f02bba1984dd11e8224d293e6",
      "transactionType": "CALL",
      "contractName": null,
      "contractAddress": "0x9d29d33d4329640e96cc259e141838eb3eb2f1d9",
      "function": null,
      "arguments": null,
      "transaction": {
        "from": "0xa983cdfd2824fcb49d6203360be2084752db24b6",
        "to": "0x9d29d33d4329640e96cc259e141838eb3eb2f1d9",
        "gas": "0x11e83",
        "value": "0x16345785d8a0000",
        "input": "0x",
        "nonce": "0x4",
        "chainId": "0xaa36a7"
      },
      "additionalContracts": [],
      "isFixedGasLimit": false
    }
  ],
  "receipts": [
    {
      "status": "0x1",
      "cumulativeGasUsed": "0x23556f",
      "logs": [],
      "logsBloom": "0x00000000000000000000000000000000000000000000000000000000000000000000000000000000000000000000000000000000000000000000000000000000000000000000000000000000000000000000000000000000000000000000000000000000000000000000000000000000000000000000000000000000000000000000000000000000000000000000000000000000000000000000000000000000000000000000000000000000000000000000000000000000000000000000000000000000000000000000000000000000000000000000000000000000000000000000000000000000000000000000000000000000000000000000000000000000",
      "type": "0x0",
      "transactionHash": "0x36a53913faf43483250f1277f35a77457b0b0019be16e4ff2511bc107530660a",
      "transactionIndex": "0x32",
      "blockHash": "0x4fd927ba24e5c986e360f901563ff650b8715e7987b97153352716e49e82ff6c",
      "blockNumber": "0x60fb01",
      "gasUsed": "0xc2cf",
      "effectiveGasPrice": "0x7f1bc7e4e",
      "from": "0xa983cdfd2824fcb49d6203360be2084752db24b6",
      "to": "0x9d29d33d4329640e96cc259e141838eb3eb2f1d9",
      "contractAddress": null
    },
    {
      "status": "0x1",
      "cumulativeGasUsed": "0x23a7b7",
      "logs": [],
      "logsBloom": "0x00000000000000000000000000000000000000000000000000000000000000000000000000000000000000000000000000000000000000000000000000000000000000000000000000000000000000000000000000000000000000000000000000000000000000000000000000000000000000000000000000000000000000000000000000000000000000000000000000000000000000000000000000000000000000000000000000000000000000000000000000000000000000000000000000000000000000000000000000000000000000000000000000000000000000000000000000000000000000000000000000000000000000000000000000000000",
      "type": "0x0",
      "transactionHash": "0x2836afcb399f97c1581f17b0519ff0150c31ee704300fb6711731dee501de939",
      "transactionIndex": "0x33",
      "blockHash": "0x4fd927ba24e5c986e360f901563ff650b8715e7987b97153352716e49e82ff6c",
      "blockNumber": "0x60fb01",
      "gasUsed": "0x5248",
      "effectiveGasPrice": "0x7f1bc7e4e",
      "from": "0xa983cdfd2824fcb49d6203360be2084752db24b6",
      "to": "0xc7f2cf4845c6db0e1a1e91ed41bcd0fcc1b0e141",
      "contractAddress": null
    },
    {
      "status": "0x1",
      "cumulativeGasUsed": "0x2439c1",
      "logs": [],
      "logsBloom": "0x00000000000000000000000000000000000000000000000000000000000000000000000000000000000000000000000000000000000000000000000000000000000000000000000000000000000000000000000000000000000000000000000000000000000000000000000000000000000000000000000000000000000000000000000000000000000000000000000000000000000000000000000000000000000000000000000000000000000000000000000000000000000000000000000000000000000000000000000000000000000000000000000000000000000000000000000000000000000000000000000000000000000000000000000000000000",
      "type": "0x0",
      "transactionHash": "0x3f877b01ef4b072dc77920a2c9e2b471d7e98d7d07a66d83af19b8dc4c8dcd68",
      "transactionIndex": "0x34",
      "blockHash": "0x4fd927ba24e5c986e360f901563ff650b8715e7987b97153352716e49e82ff6c",
      "blockNumber": "0x60fb01",
      "gasUsed": "0x920a",
      "effectiveGasPrice": "0x7f1bc7e4e",
      "from": "0xa983cdfd2824fcb49d6203360be2084752db24b6",
      "to": "0x9d29d33d4329640e96cc259e141838eb3eb2f1d9",
      "contractAddress": null
    },
    {
      "status": "0x1",
      "cumulativeGasUsed": "0x25b201",
      "logs": [],
      "logsBloom": "0x00000000000000000000000000000000000000000000000000000000000000000000000000000000000000000000000000000000000000000000000000000000000000000000000000000000000000000000000000000000000000000000000000000000000000000000000000000000000000000000000000000000000000000000000000000000000000000000000000000000000000000000000000000000000000000000000000000000000000000000000000000000000000000000000000000000000000000000000000000000000000000000000000000000000000000000000000000000000000000000000000000000000000000000000000000000",
      "type": "0x0",
      "transactionHash": "0x064e366ef8b83b7214394ee678ec3d98b09094d0f81d5f22f4d5a05f7b7f6057",
      "transactionIndex": "0x35",
      "blockHash": "0x4fd927ba24e5c986e360f901563ff650b8715e7987b97153352716e49e82ff6c",
      "blockNumber": "0x60fb01",
      "gasUsed": "0x17840",
      "effectiveGasPrice": "0x7f1bc7e4e",
      "from": "0xa983cdfd2824fcb49d6203360be2084752db24b6",
      "to": "0x9d29d33d4329640e96cc259e141838eb3eb2f1d9",
      "contractAddress": null
    },
    {
      "status": "0x1",
      "cumulativeGasUsed": "0x268170",
      "logs": [],
      "logsBloom": "0x00000000000000000000000000000000000000000000000000000000000000000000000000000000000000000000000000000000000000000000000000000000000000000000000000000000000000000000000000000000000000000000000000000000000000000000000000000000000000000000000000000000000000000000000000000000000000000000000000000000000000000000000000000000000000000000000000000000000000000000000000000000000000000000000000000000000000000000000000000000000000000000000000000000000000000000000000000000000000000000000000000000000000000000000000000000",
      "type": "0x0",
      "transactionHash": "0x78ccd9af4baee7344f9d5ca8ee4aa9aed756f67f02bba1984dd11e8224d293e6",
      "transactionIndex": "0x36",
      "blockHash": "0x4fd927ba24e5c986e360f901563ff650b8715e7987b97153352716e49e82ff6c",
      "blockNumber": "0x60fb01",
      "gasUsed": "0xcf6f",
      "effectiveGasPrice": "0x7f1bc7e4e",
      "from": "0xa983cdfd2824fcb49d6203360be2084752db24b6",
      "to": "0x9d29d33d4329640e96cc259e141838eb3eb2f1d9",
      "contractAddress": null
    }
  ],
  "libraries": [],
  "pending": [],
  "returns": {},
  "timestamp": 1721645068,
  "chain": 11155111,
  "commit": "03a2c0b"
}